:020000040800F2
:10000000B0040020251A0008091A00080B1A00087D
:100010000D1A00080F1A0008111A0008000000004D
:10002000000000000000000000000000131A00089B
:10003000151A000800000000171A0008191A000815
:10004000491A00084D1A0008511A0008551A0008EC
:10005000591A00085D1A0008611A0008651A00089C
:10006000691A00086D1A0008711A0008751A00084C
:10007000791A00087D1A0008811A0008851A0008FC
:10008000891A00088D1A0008911A0008951A0008AC
:10009000991A00089D1A0008A11A0008A51A00085C
:1000A000A91A0008AD1A00081B1A0008B11A0008A6
:1000B000B51A0008B91A0008BD1A0008C11A0008CC
:1000C000C51A0008C91A0008CD1A0008D11A00087C
:1000D000D51A0008D91A0008DD1A0008E11A00082C
:1000E000E51A0008E91A0008ED1A0008F11A0008DC
:1000F000F51A0008F91A0008FD1A0008011B00088B
:10010000051B0008091B00080D1B0008111B000837
:10011000151B0008191B00081D1B0008211B0008E7
:10012000251B0008291B00082D1B0008311B000897
:10013000351B0008391B00083D1B0008411B000847
:10014000451B0008491B00084D1B0008511B0008F7
:10015000551B0008591B00085D1B0008611B0008A7
:10016000651B0008691B00086D1B0008711B000857
:10017000751B0008791B000800000000000000004B
:100180007D1B0008811B000838B5040001D1012047
:1001900032BD00F007F918B900F000F900F0ECFBEF
:1001A0003CE090F83D10012901D001207047022168
:1001B00080F83D100168CA6842F00102CA60016817
:1001C000DFF8AC01814218BFB1F1804F12D0DFF8E7
:1001D000A40181421CBFDFF8A02191420AD0DFF8C0
:1001E0009C0181421FBFDFF898219142DFF8940102
:1001F00081420DD18A68DFF898010240062A18BFB3
:10020000B2F5803F08D0086840F00100086003E0C4
:100210000A6842F001020A600020704702206870FC
:10022000211D206800F0FAF901202873A870E870F9
:1002300028716871A871E87128726872A872E872F2
:100240006870002032BD38B5040001D1012032BDF4
:1002500000F0A8F818B900F0A1F800F0C1FBDDE744
:1002600070B500F091F809B902780FE0042908BFD1
:1002700042780BD0082908BF827807D00C2908BF24
:10028000C27803D010290CBF02794279012A01D02B
:10029000012070BD11B90222027014E0042902D1BC
:1002A000022242700FE0082902D1022282700AE085
:1002B0000C2902D10222C27005E0102907BF0222D8
:1002C00002710223437100F044F800F04BF818BFAC
:1002D000904208D088421FBFDFF8B850A842DFF82C
:1002E000B860B04201D100F01FF824689C4218BFEA
:1002F000B4F1804F0BD000F024F81CBF1E4B9C4281
:1003000005D000F01BF81CBF94428C4208D100F0CD
:1003100010F818BFB1F5803F04D000F01EF801E0DE
:1003200000F012F8002070BD456C45F400454564AE
:100330007047A16816480140062970470F4884425B
:1003400070470C4884427047216841F001012160E8
:1003500070472068012200F001BB206840F00100D6
:10036000206070472068024B054A06499842704752
:10037000002C01400004004000080040000C004038
:100380000034014000400140044604F13E00704743
:10039000070001000044014000480140002129708D
:1003A0002046704704F13C056878704710B5044654
:1003B000206801698A0715D5C1688A0712D56FF0D0
:1003C0000201016101222277806910F0030F2046AB
:1003D00002D000F047FB03E000F045FB00F094F88A
:1003E00000202077206801694A0715D5C1684A07AF
:1003F00012D56FF00401016102222277806910F4A6
:10040000407F204602D000F02DFB03E000F02BFBE4
:1004100000F07AF800202077206801690A0715D5D6
:10042000C1680A0712D56FF0080101610422227722
:10043000C06910F0030F204602D000F013FB03E068
:1004400000F011FB00F060F80020207720680169BF
:10045000CA0615D5C168CA0612D56FF01001016130
:1004600008222277C06910F4407F204602D000F0B5
:10047000F9FA03E000F0F7FA00F046F800202077E0
:1004800020680169CA0708D5C168CA0705D56FF099
:1004900001010161204600F0A7FB206801690A06FE
:1004A00008D5C1680A0605D56FF0800101612046B4
:1004B00000F0ACFB20680169CA0508D5C1680A06CE
:1004C00005D56FF480710161204600F0A0FB206823
:1004D00001694A0608D5C1684A0605D56FF0400192
:1004E0000161204600F094FB206801698A060AD564
:1004F000C1688A0607D56FF0200101612046BDE87A
:10050000104000F086BB10BD204600F083BB38B51C
:1005100000F07EF801D1022032BD012084F83C00B9
:1005200052B1042A19D0082A29D00C2A38D0102A0E
:1005300048D0142A57D067E0206800F0C5F8216839
:10054000886940F008008861886920F004008861AB
:100550008A69286902438A6156E0206800F0F5F84C
:100560002068816941F400618161816921F48061C1
:10057000816181692A6941EA0221816144E0206840
:1005800000F01CF92168C86940F00800C861C8691A
:1005900020F00400C861CA6928690243CA6133E0D7
:1005A000206800F043F92068C16941F40061C1612D
:1005B000C16921F48061C161C1692A6941EA0221EE
:1005C000C16121E0206800F058F92168486D40F0D1
:1005D00008004865486D20F0040048654A6D2869A8
:1005E00002434A6510E0206800F071F92068416D0F
:1005F00041F400614165416D21F480614165416DC7
:100600002A6941EA02214165002084F83C0032BD9C
:1006100004460D4694F83C00012870472DE9F0434C
:10062000DFF80873D0F800C0DFF80433DFF80443C4
:10063000DFF80453DFF80463DFF804E3DFF8048332
:10064000DFF80493B84218BFB0F1804F07D0484597
:1006500018BF404503D0704518BFB0420ED14A685C
:10066000B8422CF0700C18BFB0F1804F42EA0C0C6D
:100670000CD048451CBF4045704507D0B04218BF5C
:10068000A84203D0A04218BF984204D1CA682CF4F3
:10069000407C42EA0C0C4A692CF0800C42EA0C02C5
:1006A0000260B8428A68C26218BFB0420A688262B9
:1006B00004D0A8421CBFA042984201D1096901633D
:1006C00001224261BDE8F0832DE9F041026ADFF8C2
:1006D0005C82DFF868E2DFF85C72DFF85CC2520827
:1006E00052000262066A44688569DFF860220B687E
:1006F00026F0020615408A6816431D43404518BF80
:1007000070458B4B04D060451CBFB84298420DD158
:10071000CA6826F008061643404518BF704526F003
:10072000040605D0604518BFB84201D0984205D1F3
:100730004B698A6924F440741C4314434460856106
:10074000496841630662BDE8F081F0B5026A22F0B3
:1007500010020262056A436884697D4A0E6814408B
:100760008A6844EA062425F0200545EA02156F4E02
:10077000724AB04218BF904208D1CF6825F0800578
:1007800045EA0715B04225F040050AD090421CBF4B
:10079000694A904205D0674EB0421CBF644A9042FD
:1007A00006D14E698A6923F44063164343EA8603FF
:1007B00043608461496881630562F0BDF0B5026AF7
:1007C000624B22F480720262066A4468C5690A6854
:1007D00026F400761D408B6846EA03261543534BEA
:1007E000564A984218BF904208D1CF6826F4006656
:1007F00046EA0726984226F480660AD090421CBF3B
:100800004D4A904205D04B4B98421CBF484A9042FB
:1008100006D14B698A6924F44054134344EA031413
:100820004460C5614968C1630662F0BD70B5026A83
:1008300022F480520262036A4468C569444A00F0A7
:100840006DF823F4005343EA0233B0421CBF3B4A25
:10085000904207D0384EB0421FBF364A9042344EC5
:10086000B04204D14A6924F4804444EA82144460CA
:10087000C56149680164036270BD70B5026A354B99
:1008800022F480320262046A4568466D0A681E409E
:1008900016438B68254A24F4003444EA034490420A
:1008A0001CBF264B984207D0234A90421FBF214BC2
:1008B00098421F4A904204D14A6925F4803545EA9E
:1008C00002254560466549688165046270BD70B562
:1008D000026A22F480120262036A4468456D1E4A6D
:1008E00000F01CF823F4001343EA0253B0421CBF8B
:1008F000124A904207D0104EB0421FBF0D4A90429C
:100900000B4EB04204D14A6924F4802444EA822484
:10091000446045654968C165036270BD0E68154055
:1009200045EA06258A68014E70470000002C014008
:1009300000480140004401400040014000340140B3
:10094000000C004000080040000400408CFFFEFF47
:10095000FF8CFFFE8FFFFEFFFF8FFFFE10B501F043
:100960001F01036A01248C40A343036202FA01F1D0
:10097000036A1943016210BD704730B4002513E0CB
:1009800050F8042BD30744BFA9F101039A18091F9B
:10099000042942F8045BFAD213468C0744BF158041
:1009A0009B1CC90748BF1D7050F8041B0029E7D1E4
:1009B00030BC7047264881B0816841F001018160F8
:1009C000816801F0010100910099026842F08052B3
:1009D0000260006800F080500090009801B07047FD
:1009E00081B000681B49884209D11B48026842F463
:1009F00080320260006800F480300090009801B0FE
:100A0000704710B586B004461422002101A800F0FA
:100A100002F921680F48814217D11048016841F05E
:100A2000020101604FF48041006800F00200009074
:100A3000022200980A480191029200210391049138
:100A40000E21059101A900F0F1F806B010BD0000DB
:100A50005810024000400140601002404C1002401B
:100A6000000400487047704718B595B000F0CEF903
:100A700000F07CF86048614C016841F002010160BF
:100A80000C22006800F002000090002100986846E7
:100A900000F0C1F81C22002103A800F0BCF82C22B1
:100AA00000210AA800F0B7F85548206040F28F11E5
:100AB00040F2E7300022E0606160A2602261626182
:100AC000A2612046FFF7BFFB08B100F09DF80021AE
:100AD000009102912046694600F0A8F908B100F0A3
:100AE00093F860204FF4FA7103900491002205926C
:100AF000069207920892099203A92046FFF707FD84
:100B000008B100F081F800204FF400510A900B90DA
:100B10000C900D900E900F9114900AA9204600F0B1
:100B2000C2F908B100F070F82046FFF76AFF002113
:100B30002046FFF795FB0DE00120206506E0042923
:100B4000FADD491FE1640A2000F0FCF92168B4F8DD
:100B50004C004863206DE16C0028F0D040F2123266
:100B60009142B8BF0F31EDDB0020E6E780B596B0CB
:100B70004422002105A800F04EF814220021684606
:100B800000F049F84FF4007000F0F6F908B100F0F9
:100B90003BF801210B91002260210D910C92012163
:100BA00010911191022228210F921291102005908C
:100BB0000722022113921491159105A800F018FA4A
:100BC00008B172B6FEE70F200321009001910022C8
:100BD0000292039204920421684600F03EFC08B1A0
:100BE00072B6FEE717B000BD00680649884208BF2C
:100BF00000F088BD704700004C100240000000204B
:100C0000004001400048014072B6FEE7704770475F
:100C100070477047704710B5044610460A460146B3
:100C2000204600F077FD204610BD00002DE9F84F6A
:100C30004FF000096C4A6D4B4FF00F0805460E4609
:100C400034E06B4CA54214BF072406248C4069494C
:100C50003C4341F82C40C143146801EA040C746819
:100C6000E40348BF40EA0C0CC2F800C0546801EA33
:100C7000040C7468A40348BF40EA0C0CC2F804C01A
:100C8000946801EA040C7468E40248BF40EA0C0C62
:100C9000C2F808C0D46801EA040C7168890248BF30
:100CA00040EA0C0CC2F80CC009F10109316831FAB4
:100CB00009F000F09780012404FA09F414EA010015
:100CC000F2D04FEA490C032101FA0CF16FEA010E50
:100CD0007168E443012918BF022903D0112918BF04
:100CE000122910D1A968F7680EEA010107FA0CF77A
:100CF0003943A96069687768C7F30017214007FA8C
:100D000009F739436960716801F00307032F07D1C0
:100D1000EF6AC1F3C0013C4001FA09F10C43EC62F7
:100D2000E968B4680EEA010104FA0CF42143E960B1
:100D30004FEA89017468022C18BF122C12D14FEAB5
:100D4000D90405EB840401F01C07D4F820A008FAAC
:100D500007FB2AEA0B0AD6F810B00BFA07F747EAA6
:100D60000A0727622C680EEA0407347904F00304AA
:100D700004FA0CF43C432C607468E40094D51C68BD
:100D800044F001041C604FEA990C1C6804F0010453
:100D9000009401F00C01009C164C54F82C4008FA09
:100DA00001F724EA0707B5F1904F08BF002418D0D7
:100DB000114CA54208BF012413D0104CA54208BF16
:100DC00002240ED00E4CA54208BF032409D00D4CBE
:100DD000A54208BF042404D00B4CA5427FF431AFD8
:100DE000052433E7BDE8F18F0004014060100240A4
:100DF00000180048080001400004004800080048AE
:100E0000000C00480010004800140048032010B5F2
:100E100000F0C1FC0F2000F0FFFC0024002814BFEC
:100E20000124FFF7C7FD204610BD0000F0B500F11A
:100E30003C042278012A01D10220F0BD0122227057
:100E4000022363700668DFF8ECE07768DFF8E8C03B
:100E5000B568764518BF664503D14B6827F470071F
:100E60001F430A6827F070071743776002687245CE
:100E700018BFB2F1804F0CD02D4882421CBF2F4BBF
:100E80009A4206D0294882421EBF62452C4B9A42A4
:100E900004D1886825F080050543956001216170C3
:100EA00000202070F0BD30B590F83C20012A01D11F
:100EB000022030BD012280F83C20CC688B684A6853
:100EC00024F440741C4324F4806414430B680A69BE
:100ED00024F400641C4324F4805414434B698A6A4C
:100EE00024F400541C4324F4804414438B69114AB5
:100EF00024F4702444EA0344036893421CBF0E4D5B
:100F0000AB420CD14A6A24F4700444EA0254CA6920
:100F1000096A24F08074144324F000740C435C6468
:100F2000002280F83C20002030BD0000000C004072
:100F300000040040002C0140003401400008004043
:100F40000040014038B5044600F0A2FC14F1010F46
:100F5000054602D004480178641800F099FC401B53
:100F6000A042FAD331BD00BF54000020DFF8740066
:100F7000006800F4C060704710B5DFF86810B0F585
:100F8000007F086800F4C06019D1B0F5007F1FD061
:100F90000868DFF85420DFF8544020F4C06040F4C3
:100FA000007000F017F800E0401E4A69530501D5B3
:100FB0000028F9D1486941050AD5032010BDB0F5D4
:100FC000806F05D0086820F4C06040F4806008603D
:100FD000002010BD0860322013684343B3FBF4F0D7
:100FE000401C7047007000406000002040420F002D
:100FF0002DE9FC47050065D0DFF8C876DFF8D46638
:10100000BC68F86800F003082878C10604F00C04F6
:1010100048D524B10C2C08BFB8F1010F2CD1386889
:10102000810702D5A86900284CD0396808074EBF4F
:10103000396871680909286A01F0F001814206D215
:1010400000F005FB00283DD100F0F5F907E000F0C5
:10105000F2F924B9286A00F0FAFA002832D100F037
:1010600086FABA6800F079FADFF86006006800F0E6
:10107000D3FB010016D0D8E1A86928B3396841F044
:101080000101396000F004FC81463868810707D40B
:1010900000F0FEFBA0EB09000328F6D30320C4E117
:1010A00000F0C9F92878C10756D5082C04D00C2CBB
:1010B00008BFB8F1030F18D1386881034CD56868B0
:1010C000002849D10120B0E138684008400038606C
:1010D00000F0DEFB814638688107E3D500F0D8FBDD
:1010E000A0EB09000328F6D3D8E76868B0F5803F85
:1010F00004D1386840F48030386011E0B0F5A02F9A
:10110000386806D140F480203860396841F4803175
:1011100005E020F480303860396821F4802139609E
:10112000686860B100F0B4FB81463868810313D46D
:1011300000F0AEFBA0EB09006528F6D3AEE700F0A7
:10114000A7FB81463868810306D500F0A1FBA0EB20
:1011500009006528F6D3A1E72878810713D5042C68
:1011600004D00C2C08BFB8F1020F22D13868410519
:1011700002D5E8680028A5D07868296920F0F850E1
:1011800040EA016078602878010743D56869002843
:10119000706830D040F00100706000F079FB80464C
:1011A0007068810736D400F073FB00F040F9F7D384
:1011B00074E7E86878B1396841F48071396000F00B
:1011C00067FB804638684105D6D400F061FB00F02B
:1011D0002EF9F7D362E7386820F48070386000F0A9
:1011E00057FB804638684105CDD500F051FB00F033
:1011F0001EF9F7D352E740084000706000F048FB4A
:1012000080467068810705D500F042FB00F00FF9B9
:10121000F7D343E72878410767D5B86DC1004FF091
:1012200000080AD4B86D40F08050B8654FF001084E
:10123000B86D00F0805000900098DFF89C94D9F8C9
:101240000000C10513D4D9F8000040F48070C9F83B
:10125000000000F01DFB8246D9F80000C10506D44D
:1012600000F016FBA0EB0A000328F5D316E7A868E8
:10127000012804D1306840F00100306010E00528FA
:10128000306806D140F004003060316841F001015F
:1012900005E0400840003060316821F00401316011
:1012A000A86841F2893960B100F0F2FA82463068EC
:1012B000810713D400F0ECFAA0EB0A004845F6D3FE
:1012C000ECE600F0E5FA82463068810706D500F0CA
:1012D000DFFAA0EB0A004845F6D3DFE6B8F1000FCD
:1012E00003D0B86D20F08050B865A86A002800F0DF
:1012F0009B80022878D1F868EA6A00F003019142E5
:1013000001BF00F070012A6B521EB1EB021F1ED10B
:101310006A6B00F4FE41B1EB022F18D1A96B0729CB
:101320000CBF0021012100F400328A420FD1EA6B88
:10133000520800F4C001521EB1EB425F07D1296C84
:10134000490800F0C060491EB0EB416F48D00C2C3A
:101350004BD03868410101D43868C1003FF5B2AEC6
:10136000386820F08070386000F092FA04463868DF
:10137000810105D500F08CFA001B0328F7D38DE618
:10138000F868DFF85813EA6A0840296B1043491ED1
:1013900040EA0110EA6B696B520840EA0120296CAF
:1013A000521E490840EA4250491E40EA4160A96B7A
:1013B000090940EA4140F860386840F080703860C0
:1013C000F96841F08071F96000F062FA044638680B
:1013D000810129D400F05CFA001B0328F7D35DE6F5
:1013E0003868810120D4E7E70C2C3FF46BAE3868F5
:1013F00020F080703860396811F0205F03D1F86800
:1014000080088000F860F968DFF8D4020140F960D4
:1014100000F03EFA04463868810105D500F038FA3C
:10142000001B0328F7D339E60020BDE8F687A0EBC0
:10143000080003287047386840F0080038603968B1
:10144000286A21F0F001014339607968E86921F4E4
:101450007F4141EA0021796070472DE9F0410400A5
:10146000884658D0DFF87C62306800F007004045BD
:1014700009D23168C90848EAC1013160306800F01A
:101480000700404547D12078DFF83852C1072AD5F8
:101490006068032802D129688A0108E0022802D185
:1014A00029688A0303E00028296802D18A0702D448
:1014B00031E04A052FD5A968890840EA8100A86073
:1014C00000F0E6F90746A868616800F00C00B0EB90
:1014D000810F08D000F0DCF9C01B41F2893188424D
:1014E000F1D3032037E02078810705D5AA68A068EA
:1014F00022F0F0020243AA60316801F0070188453A
:101500000BD23068C00848EAC0003060316801F092
:101510000701414501D001201DE02078410705D594
:10152000AA68E06822F4E0620243AA602178080712
:1015300006D5A968206921F4605141EAC001A9607B
:1015400000F015F8AA6800F008F8BDE8F0415F481F
:10155000006800F061B9BDE8F0816349C2F303128D
:10156000895C594A01F01F01C8401060704770B58E
:10157000544A5F4B9068D6680025002110F00C009B
:1015800006F003065B4C03D00C2812D1012E1AD1B1
:1015900015682E0704D44E4D2E68C6F3032502E0CD
:1015A0001568C5F30315544E56F8255048B9294619
:1015B00024E0042808BF214620D008281ED119465F
:1015C0001CE00C281AD1D06800F00300022803D0D8
:1015D000032808BF1D4600E02546D168D068D268C0
:1015E000C0F306204543C1F30210C2F34161401C21
:1015F000491CB5FBF0F04900B0FBF1F1084670BDA5
:1016000031483A4A006813683C49C3F3C222895CF6
:1016100001F01F01C840704710B50F220260334A25
:10162000136803F003034360146804F0F00484605B
:10163000136803F4E063C3601268D20802F4E06246
:1016400002612848026802F007020A6010BD7CB5FA
:101650002B4E054630680024C10002D5FFF786FCFA
:101660000EE0306840F080503060316801F0805109
:1016700000910098FFF77AFC316821F080513160C9
:10168000B0F5007F04D1802D0CD9A12D09D304E041
:10169000802D88BF032405D801D1022402E0702DDB
:1016A00000D101240F480168C90844EAC101016062
:1016B000006800F00700A04201D0012076BD0020A4
:1016C00076BD000000100240600000205C00002099
:1016D0009410024090100240007000408C809DF9F0
:1016E000FFFFEEFE00200240DC1800080810024058
:1016F00000127A000024F40024190008401A00089F
:10170000581002400248416802788A1842607047C7
:101710005400002062F30F2262F31F42401810F0C1
:10172000030308D0C91A1FD3DB0748BF00F8012DF7
:1017300028BF20F8022D130030B414461546103986
:1017400028BF20E93C00FAD8490728BF20E90C004F
:1017500048BF40F8042D890028BF20F8022D48BF5B
:1017600000F8012D30BC7047C91818BF00F8012DD2
:10177000CB0728BF00F8012D7047000009010200C7
:1017800002D42048815470471F4B02F00F021A44C4
:1017900002F8041C70471D4B19684FF6FF02000247
:1017A000114000F4E060084319490843186070478D
:1017B00070B5164B1C68C4F302230124C3F107055E
:1017C000052D2EBF0F2504FA05F56D1E1E1D072ED3
:1017D00034BF0023DB1E2940994004FA03F3BDE81F
:1017E00070405B1E1A401143C8E70000010007D497
:1017F000012200F01F01074B8A40400943F82020D6
:101800007047000000E400E018ED00E00CED00E09F
:101810000000FA0500E100E018B5014687B000229B
:101820001A20FFF7C5FF1A20FFF7E0FF1448154CF8
:10183000016841F48021016001A9006800F4802062
:101840000090009802A8FFF7E7FEFFF7D9FE0E49C7
:101850000E4B2160B0FBF3F0401E40F2E7326060B7
:101860000021E2602161A1602046FEF78DFC18B9DD
:101870002046FEF796FC00E0012008B010BD0000F5
:1018800060100240640000200048014040420F0008
:1018900001484068704700BF540000200C480168B0
:1018A00041F47001016000220A49086840F001001B
:1018B00008608A604FF480520B68074803400B6051
:1018C000CA6000200B6823F480230B608861704796
:1018D00088ED00E000100240FFFFF6EA0000000083
:1018E00000000000010203040607080930B5016882
:1018F00084684218416802EB5103C90703D54C4480
:1019000001E0491C05D19A420AD012F9011B12F8D4
:10191000015B002904F8015BF3D4491EF7D5F2E717
:101920000C3030BDA0860100400D0300801A060077
:1019300000350C0040420F0080841E0000093D006D
:1019400000127A000024F40000366E010048E8011D
:10195000006CDC0210B5074979441831064C7C4410
:10196000163404E00A68081D114488470146A14264
:10197000F8D110BD2C000000480000004EF6885140
:10198000CEF20001086840F470000860BFF34F8F8A
:10199000BFF36F8F4FF00070E1EE100A7047000048
:1019A000DBEFFFFF4C00000064000020000000009F
:1019B0003DFFFFFFD00100002400000000000020D8
:1019C00000F00DF8002801D0FFF7C4FFAFF300804E
:1019D0000020AFF30080FFF747F800F002F8012085
:1019E000704700F001B800000746384600F002F8E2
:1019F000FBE7000080B5AFF30080024A1100182019
:101A0000ABBEFBE726000200FEE7FEE7FEE7FEE7CF
:101A1000FEE770477047704770470148FEF7C6BC45
:101A20006400002001488047014800479D180008D5
:101A3000351A0008AFF30080FFF7A0FFFFF7C0FFE3
:101A40000000000001020304FFF7FEBFFFF7FEBF26
:101A5000FFF7FEBFFFF7FEBFFFF7FEBFFFF7FEBFBA
:101A6000FFF7FEBFFFF7FEBFFFF7FEBFFFF7FEBFAA
:101A7000FFF7FEBFFFF7FEBFFFF7FEBFFFF7FEBF9A
:101A8000FFF7FEBFFFF7FEBFFFF7FEBFFFF7FEBF8A
:101A9000FFF7FEBFFFF7FEBFFFF7FEBFFFF7FEBF7A
:101AA000FFF7FEBFFFF7FEBFFFF7FEBFFFF7FEBF6A
:101AB000FFF7FEBFFFF7FEBFFFF7FEBFFFF7FEBF5A
:101AC000FFF7FEBFFFF7FEBFFFF7FEBFFFF7FEBF4A
:101AD000FFF7FEBFFFF7FEBFFFF7FEBFFFF7FEBF3A
:101AE000FFF7FEBFFFF7FEBFFFF7FEBFFFF7FEBF2A
:101AF000FFF7FEBFFFF7FEBFFFF7FEBFFFF7FEBF1A
:101B0000FFF7FEBFFFF7FEBFFFF7FEBFFFF7FEBF09
:101B1000FFF7FEBFFFF7FEBFFFF7FEBFFFF7FEBFF9
:101B2000FFF7FEBFFFF7FEBFFFF7FEBFFFF7FEBFE9
:101B3000FFF7FEBFFFF7FEBFFFF7FEBFFFF7FEBFD9
:101B4000FFF7FEBFFFF7FEBFFFF7FEBFFFF7FEBFC9
:101B5000FFF7FEBFFFF7FEBFFFF7FEBFFFF7FEBFB9
:101B6000FFF7FEBFFFF7FEBFFFF7FEBFFFF7FEBFA9
:101B7000FFF7FEBFFFF7FEBFFFF7FEBFFFF7FEBF99
:101B8000FFF7FEBFB0000001FD000001F9000010EA
:061B9000FC0002093D000B
:0400000508001A35A0
:00000001FF
